:1000000008308A00772B0000FF00030E8301A10057
:100010000A08A0008A010408A2007708A300780853
:10002000A4007908A5007A08A6007B08A70083131E
:1000300083128B1E1D280B1936288C308400001C5F
:1000400023280C183928220884002308F7002408E4
:10005000F8002508F9002608FA002708FB00200808
:100060008A00210E8300FF0E7F0E09008A110A12FA
:1000700055288A110A122C290A108A100A1182079F
:100080006E346534783474340A3400340A108A10BB
:100090000A11820700340A108A100A118207773485
:1000A0006134693474340A3400348101380BBC285B
:1000B000B908031DBC28B008031D6128B108031945
:1000C000BC282E0803196E28013A03198028033A28
:1000D00003199228013A0319A428BA288316061294
:1000E000831206168316861283128612831606134F
:1000F000831206178316861383128617AE0ABB284F
:10010000831606128312061683168612831286122F
:10011000831606138312061383168613831286131F
:10012000AE0ABB28831606128312061283168612A5
:1001300083128616831606138312061383168613FC
:1001400083128613AE0ABB28831606128312061288
:1001500083168612831286168316061383120617D9
:100160008316861383128617AE0130080319B10374
:10017000B003BB28BB282829B808031D2329B908C8
:10018000031D2329B208031DC828B3080319232916
:100190002E080319D528013A0319E728033A031951
:1001A000F928013A03190B29212983160612831213
:1001B00006168316061383120613831686128312FD
:1001C00086168316861383128617AE0A2229831693
:1001D000061283120616831686128312861283165F
:1001E0000613831206138316861383128613AE0A30
:1001F000222983160612831206128316061383120F
:1002000006178316861283128612831686138312AC
:100210008613AE0A2229831606128312061283164B
:100220008612831286168316061383120617831608
:10023000861383128617AE0132080319B303B20383
:100240002229222928298B128316881183128811CA
:100250000B118A110A12232853088F0052088E00AE
:100260003A0B9629BB08031D9629B408031D3B29A8
:10027000B508031996292F0803194829013A0319CB
:100280005A29033A03196C29013A03197E29942942
:1002900083160610831206148316061183120611A4
:1002A0008316861083128614831686118312861590
:1002B000AF0A95298316061083120614831686103A
:1002C0008312861083160611831206118316861177
:1002D00083128611AF0A9529831606108312061021
:1002E0008316061183120615831686108312861054
:1002F0008316861183128611AF0A9529831606107C
:100300008312061083168610831286148316061134
:10031000831206158316861183128615AF013408E1
:100320000319B503B40395299529022ABA08031DB8
:10033000FD29BB08031DFD29B608031DA229B70826
:100340000319FD292F080319AF29013A0319C129FF
:10035000033A0319D329013A0319E529FB29831626
:1003600006108312061483168610831286108316D5
:100370000611831206158316861183128615AF0A9D
:10038000FC298316061083120614831606118312A5
:100390000611831686108312861083168611831227
:1003A0008611AF0AFC2983160610831206108316E5
:1003B0008610831286148316061183120611831683
:1003C000861183128611AF0AFC2983160610831248
:1003D0000610831686108312861483160611831264
:1003E00006158316861183128615AF013608031988
:1003F000B703B603FC29FC29022A83160C108811C6
:10040000831288110C108A110A122328D330840019
:10041000831300080319192A0630F800F701F70BB7
:100420000F2AF80B0E2A7B30F700F70B152A800BEA
:100430000C2A8A150A12482C83165308FA0052080F
:10044000840083137A1883170008D6005508FA0031
:100450005408840083137A18831700085602031D7A
:10046000482A5308FA005208840083137A18831725
:100470008008031D3E2A0030F800602A5308FA0065
:100480005208D20A0319D30AD40A0319D50A1D2A1D
:100490005308FA0052088400831353188317000886
:1004A000D6005508FA0054088400831355188317A2
:1004B0000008560203185E2AFF305F2A0130F80058
:1004C0008312003483166C080319042B831203175C
:1004D00094001008031D6F2A83160313042B94073E
:1004E00003187F2A7F3094020318792A8316031396
:1004F000042B031D7E2A83160313042B862A8130C6
:100500009407031C862A83160313042B1408F70090
:10051000F801F901FA01831603136D08831203171A
:1005200098009817831603136E0883120317970019
:10053000831603136F088312031796001830940074
:100540009501161CC42A1308FA07031CAD2AF90AE0
:10055000031DAD2AF80A031995171208F907031CA1
:10056000B42AF80A03199517110883160313EE002D
:10057000EE176E08F807031CC22A8312031795179B
:100580008316031383120317950DF80CF90CFA0C5C
:10059000980C970C960C0310940BA02A0130F707C7
:1005A000031CD52A83160313042BF81BE02A980D8D
:1005B000FA0DF90DF80DF70BE02A83160313042B3F
:1005C000981FF42AFA0A031DF42AF90A031DF42AD3
:1005D000F80A031DF42AF80CF90CFA0CF70A031DAB
:1005E000F42A83160313042B831603136D08831256
:1005F0000317950011089506951F002BF8170A2B75
:10060000F8130A2B83160313F701F801F901FA0115
:1006100083120317031300348E30F7008316640827
:10062000F8006308F900FA01F808031D212B790886
:10063000F800F9010830F702F808031D212BF70133
:10064000292B0310F81B282BF90DF80DF703212B8C
:10065000F813831200348030831C312B8316EC0690
:100660008312031792019301831603136808831200
:1006700003179100831603136C0883120317910666
:100680008316031367080319712C83120317900054
:10069000F700831603136B080319862C83120317C4
:1006A00090020319FC2B031CA22B831603136C0866
:1006B0008312031796009617831603136D0883128F
:1006C00003179500831603136E0883120317940013
:1006D00093010310960C950C940C930C900B682BC3
:1006E000911F752B1214A42C121010101216EA3040
:1006F00084008313B92C1212911B882B101C932B8E
:10070000960C950C940C930CF70A03199F2C932BC1
:10071000961B962B0310930D940D950D960DF703D4
:1007200003199F2C882B12172C2C121383160313DA
:100730006808831203179100911FA02B9617982C1D
:100740009613982C831603136B08831203179000DB
:10075000F7008316031367088312031790028316AA
:100760000313680883120317960096178316031362
:100770006908831203179500831603136A0883120E
:100780000317940093010310960C950C940C930C92
:10079000900BC22B911FCF2B9214A42C92101010EF
:1007A0009216EE3084008313B92C9212911BE22B27
:1007B000101CED2B960C950C940C930CF70A031956
:1007C0009F2CED2B961BF02B0310930D940D950D84
:1007D000960DF70303199F2CE22B92172C2C9213E2
:1007E000831603136C08831203179100911FFA2BD1
:1007F0009617982C9613982C831603136C08831263
:10080000031796009617831603136D0883120317B8
:100810009500831603136E08831203179400911F2B
:10082000152C96131215A42C121193011010EA30F6
:1008300084008313B92C911B422C83160313680880
:10084000831203179100101C2C2C960C950C940C01
:10085000930CF70A03199F2C931F3D2C940A031D38
:100860003D2C950A031D3D2C960A031D3D2C960C2C
:10087000950C940CF70A03199F2C121B952B921BB5
:10088000EF2B692C80309606961F4E2CA42C8316D5
:1008900003136C088312031791005F2C8316031354
:1008A00068088312031791009608031D5F2C9508B2
:1008B000031D5F2C9408031D5F2CF701982C961BD9
:1008C000692C0310930D940D950D960DF70B5F2C6D
:1008D0009F2C911F6D2C9617982C9613982C83168D
:1008E00003136B08F7006C08831203179600831636
:1008F00003136D08831203179500831603136E0804
:10090000831203179400982C831603136708F700CB
:10091000680883120317960083160313690883126D
:1009200003179500831603136A08831203179400B4
:100930001608F8001508F9001408FA00D72CF7017A
:10094000F801F901FA01D72C930194099509960948
:100950009309930A031DB22C940A031DB22C950A25
:100960000319960A1218742B9218CE2B1219142CF4
:10097000472C00089407031CC32C950A031DC32CA5
:10098000960A03191014840300089507031CCB2C46
:10099000960A0319101484030008801F803A9607F2
:1009A00003181014121A7B2B921AD52B1B2C03132D
:1009B00000340317100803199F2D9C001408031915
:1009C0009F2D9C02031CE92C7F309C0703189F2D50
:1009D000EF2C81309C02031C9F2D03199F2D1C08B6
:1009E000F700F801F901FA019B0111089A009A1722
:1009F000120899001308980019309C0017089802F3
:100A00000318122D013099020318122D9A020318AF
:100A1000122D9B020318122D9B0A9A0A990A170895
:100A20009807442D1608990203182D2D01309A02BB
:100A300003182D2D9B0203182D2D9B0A9A0A1608C8
:100A4000990717089807031C442D990A031D442D84
:100A50009A0A031D442D9B0A442D150880389A02DA
:100A60000318432D01309B020318432D9B0A1508E0
:100A700080389A0716089907031C212D9A0A031D2E
:100A8000212D9B0A212D7A149C0B472D522D0310EA
:100A9000980D990D9A0D9B0D0310FA0DF90DF80D97
:100AA0009D0DFE2C1D1C5A2D0310F80CF90CFA0C90
:100AB0009D0C5D2DF70303199F2D9D1B862D0310A3
:100AC000980D990D9A0D9B0D170898020318722D19
:100AD000013099020318722D9A020318722D9B029D
:100AE000031C952D1608990203187D2D01309A02DA
:100AF00003187D2D9B02031C952D150880389A0242
:100B00000318862D01309B02031C952DFA0A031D44
:100B1000952DF90A031D952DF80A031D952DF70A49
:100B200003199F2DF80CF90CFA0C11089C001508FC
:100B30009C069C1F9D2DF817A32DF813A32DF701DC
:100B4000F801F901FA01031300347F308316D40051
:100B5000D501D601D701D801D901DA01DB01DC01C9
:100B6000DE015E08DE0A52078400831353188317E0
:100B70000008DD005D082F3C0318C22D5D08393CDC
:100B80000318CE2D5D082B3C0319CE2D5D082D3C9E
:100B90000319CE2D5D082E3C031DDF2E5D082D3C74
:100BA000031DDD2D0130DC005E08DE0A52078400E3
:100BB0008313531883170008DD005D082B3C031DC9
:100BC000EA2D5E08DE0A5207840083135318831748
:100BD0000008DD005D082F3C03185F2E5D08393CDE
:100BE000031C5F2EEF01EE012030ED008230EC009F
:100BF0005B08831203179300831603135A088312AA
:100C000003179200831603135908831203179100E8
:100C100083160313580883120317900003136222EC
:100C200077088316DF007808E0007908E1007A0889
:100C3000E200E4015D08E30083120C2383108316B5
:100C40006208EA006108E9006008E8005F08E70060
:100C50007A08EE007908ED007808EC007708EB00E0
:100C600083122B2377088316E3007808E4007908C1
:100C7000E5007A08E60083146608EA006508E900E2
:100C80006408E8006308E700EE01ED014030EC0085
:100C90008430EB0083122B237A088316DB0079085B
:100CA000DA007808D9007708D8005E08DE0A520713
:100CB00084008313531883170008DD00EA2D5D08B4
:100CC0002E3C031DDF2E5E08DE0A520784008313CC
:100CD000531883170008DD005D082F3C0318DF2E32
:100CE0005D08393C031CDF2E5708EF005608EE0064
:100CF0005508ED005408EC0083120317930192018C
:100D00002030910082309000031362227A0883160B
:100D1000D7007908D6007808D5007708D40030309D
:100D20005D02E401E30083120C237A0803179300A9
:100D300079089200780891007708900083160313D1
:100D4000570883120317970083160313560883125C
:100D50000317960083160313550883120317950093
:100D60008316031354088312031794000313D92422
:100D7000831083165B08EA005A08E9005908E80066
:100D80005808E7007A08EE007908ED007808EC00D2
:100D90007708EB0083122B237A088316DB0079088F
:100DA000DA007808D9007708D8005E08DE0A520712
:100DB00084008313531883170008DD006C2E5C0B2E
:100DC000082FEF01EE018030ED007F30EC005B0872
:100DD000831203179300831603135A088312031711
:100DE0009200831603135908831203179100831688
:100DF00003135808831203179000031362227A0822
:100E00008316DB007908DA007808D9007708D80063
:100E10005808F7005908F8005A08F9005B08FA006A
:100E20008312003483166708EE006B08EE06EE1F8F
:100E30001E2F03110310E71B0314512F6708EE0048
:100E40006A08EF006608EF0203192C2FEE1F512FDE
:100E50000308013A8300512F6B08EF006708EF0287
:100E60000319382FEE1F512F0308013A8300512F29
:100E70006C08EF006808EF020319442FEE1F512F92
:100E80000308013A8300512F6D08EF006908EF0253
:100E90000319502FEE1F512F0308013A8300512FE1
:100EA0000310831200348E30F70003171008F70286
:100EB0001108F9001208F800F917F70803196B2F49
:100EC0000310F908031D672FF80803196B2FF90C9D
:100ED000F80CF70B602F911F722FF809F909F80A27
:100EE0000319F90A031300348316EA01EB016908B8
:100EF000EF006808EE006708ED006608EC0083125A
:100F0000031793019201343091008730900003134E
:100F1000622277088316EC007808ED007908EE006D
:100F20007A08EF00831203179300831603136E08E9
:100F3000831203179200831603136D08831203179D
:100F40009100831603136C08831203179000D730A7
:100F50009700A3309600603095008330940003130F
:100F6000D9247A0803179300790892007808910031
:100F7000770890000313532779088316EB0078084D
:0E0F8000EA006A08F8006B08F90083120034DA
:101000008316D701D5010A30D600D4015208530403
:10101000031D0D280030F80000295708D70A520791
:1010200084008313531883170008D80058082D3CF8
:10103000031D26280130D5005708D70A520784001F
:101040008313531883170008D800332858082B3C03
:10105000031D33285708D70A5207840083135318F7
:1010600083170008D80058082F3C0318F6285808A2
:10107000393C031CF6285808303C031D5F285708EC
:10108000520784008313531883170008783C031910
:1010900053285708520784008313531883170008F6
:1010A000583C031D5F281030D600D70A5708D70ACE
:1010B000520784008313531883170008D80056087A
:1010C0000A3C031DA42858082F3C0318A3285808DD
:1010D000393C031CA3280A30D9005408DA00F70170
:1010E000F801590803105A18F707F70CF80CDA182A
:1010F000F707F70CF80C5A19F707F70CF80CDA1980
:10110000F707F70CF80C5A1AF707F70CF80CDA1A6D
:10111000F707F70CF80C5A1BF707F70CF80CDA1B5B
:10112000F707F70CF80C7808D90030305802590747
:10113000D4005708D70A5207840083135318831723
:101140000008D8006328F6285608103C031DF6282E
:101150005808603C0318B32858087A3C031CB3288D
:101160005808DF39B4285808D80058082F3C03180D
:10117000BD285808393C0318C5285808403C0318B6
:10118000F6285808463C031CF62858082F3C03183C
:10119000D6285808393C031CD628540ED900F03004
:1011A000D905303058025907D400DF28540ED90031
:1011B000F030D905413058020A3E5907D40057088B
:1011C000D70A520784008313531883170008D800E6
:1011D0005808603C0318F32858087A3C031CF3288D
:1011E0005808DF39F4285808D800B528550BFE28D0
:1011F00056080A3C031DFE28D409D40A5408F800F6
:1012000083128A150A12F02C831483165D08EA00F3
:101210005C08E9005B08E8005A08E7005508EE00A2
:101220005408ED005308EC005208EB008A118312B9
:101230002B238A1577088316E2007808E3007908E3
:10124000E4007A08E500E9006408E8006308E700C4
:101250006208E600ED01EC01EB01EA018A1183125C
:1012600012278A150319A529831483166108EA0039
:101270006008E9005F08E8005E08E7005908EE0032
:101280005808ED005708EC005608EB008A1183124D
:101290002B238A1577088316E2007808E300790883
:1012A000E4007A08E50083145D08EA005C08E900C0
:1012B0005B08E8005A08E7005508EE005408ED0006
:1012C0005308EC005208EB008A1183122B238A1575
:1012D00083166508831203179300831603136408AB
:1012E00083120317920083160313630883120317F4
:1012F00091008316031362088312031790007A0883
:1013000097007908960078089500770894008A116C
:101310000313D9248A1577088316E6007808E700B6
:101320007908E8007A08E9006608F7006708F8001D
:101330006808F900F81369088312D1007908D00011
:101340007808CF007708CE00AA29D101D001CF01BB
:101350007F30CE00031793019201910191309000EC
:10136000031351080317970003135008031796003F
:1013700003134F080317950003134E080317940037
:101380008A110313D9248A1583148316EA01E9010B
:10139000E8019430E7007A08EE007908ED0078085B
:1013A000EC007708EB008A1183122B238A1577084B
:1013B0008316E2007808E3007908E4007A08E50083
:1013C0008312031793008316031364088312031711
:1013D0009200831603136308831203179100831688
:1013E0000313620883120317900097019601950179
:1013F000843094008A110313D9248A157A080317BC
:1014000093007908920078089100770890008A117B
:10141000031353278A157908D3007808D200831460
:1014200083165D08EA005C08E9005B08E8005A08DA
:10143000E7005508EE005408ED005308EC00520890
:10144000EB008A1183122B238A157A08D7007908BA
:10145000D6007808D5007708D4008316E901E801A2
:10146000E701E601831257088316ED008312560840
:101470008316EC00831255088316EB008312540880
:101480008316EA008A11831212278A1503184A2A42
:10149000031D7F2A5408F7005508F8005608F90084
:1014A0005708FA00F81354088316E2007808E3009E
:1014B0007908E4007A08E500E9006408E8006308B8
:1014C000E7006208E6008A11831274278A157908FA
:1014D000B1007808B000B9010130B80083165D088A
:1014E0008312C10083165C088312C00083165B0858
:1014F0008312BF0083165A088312BE00B22A540812
:10150000F7005508F8005608F9005708FA00F813D4
:1015100054088316E2007808E3007908E4007A08AA
:10152000E500E9006408E8006308E7006208E600F7
:101530008A11831274278A157908B3007808B200DB
:10154000B901B80183165D088312C10083165C08D7
:101550008312C00083165B088312BF0083165A08EB
:101560008312BE00831483166108EA006008E90054
:101570005F08E8005E08E7005908EE005808ED0033
:101580005708EC005608EB008A1183122B238A15AA
:101590007A08DB007908DA007808D9007708D800E3
:1015A0008316E901E801E701E60183125B0883166F
:1015B000ED0083125A088316EC0083125908831633
:1015C000EB00831258088316EA008A11831212274F
:1015D0008A150318ED2A031D222B5808F700590815
:1015E000F8005A08F9005B08FA00F8135808831647
:1015F000E2007808E3007908E4007A08E500E900F1
:101600006408E8006308E7006208E6008A118312B4
:1016100074278A157908B5007808B400BB01013039
:10162000BA00831661088312C5008316600883120E
:10163000C40083165F088312C30083165E088312FA
:10164000C200552B5808F7005908F8005A08F9004D
:101650005B08FA00F81358088316E2007808E300E4
:101660007908E4007A08E500E9006408E800630806
:10167000E7006208E6008A11831274278A15790848
:10168000B7007808B600BB01BA018316610883125F
:10169000C500831660088312C40083165F08831296
:1016A000C30083165E088312C2003C0B5F2BBD088B
:1016B000031D5F2B8316081183120815632B8316F5
:1016C00008118312081153088F0052088E008101FF
:1016D00083160C1483128B1683160108C039073841
:1016E0008100B530831290008A150A12802D840182
:1016F00083131F308305203083169900A63098008D
:1017000090308312980083161F149F141F159F1189
:1017100007309C008312A801A901AE01AF01B001FE
:10172000B101B201B301B401B501B601B701B8010D
:10173000B901BA01BB01BC01BD01BE01BF01C001BD
:10174000C101C201C301C401C501C601C701C8016D
:10175000C901CA01CB01CC01CD01CE01CF01D0011D
:10176000D101D201D301D401D501D601D701D801CD
:10177000D901DA01DB01FF30DC00DD01DE01783068
:101780008316A000A101A201A301A401A501A60145
:10179000A701A801A9017930AA00AB01AC01AD01F4
:1017A000AE01AF01B001B101B201B3017A30B400B2
:1017B000B501B601B701B801B901BA01BB01BC015D
:1017C000BD016730BE006F30BF00C001C101C20162
:1017D000C301C401C501C601C7016930C8006E302C
:1017E000C9006930CA007430CB00CC01CD01CE01F4
:1017F000CF01D001D1011F149F141F159F11831217
:101800001F108316091283129412DC125C088316CF
:10181000870083125C165C08831687008312DC1134
:101820005C08831687000130831294000030831611
:101830009400C03083128B040030F8009200003016
:101840008316920007309C0005081030F700F70B54
:10185000272C00001C0883120D1383169D015F3096
:10186000840083138403840A83128C1E352C1A0887
:1018700080000D30000203193F2C8316332C8001A9
:101880000230F300FA308316D3008A118312062A3D
:101890008A15F30B422C8316D3015F30D200D50199
:1018A000BE30D4008A1183121C228A15F80803194D
:1018B000082DF30173088A113C208A15F30AF700FA
:1018C00077080C1E612C990005307302031D5A2CF9
:1018D0005F30840083138403840A8C1E6D2C1A08E5
:1018E00080000D300002031D6C2C80018316D30193
:1018F0005F30D200D501A030D4008A1183121C229F
:101900008A15F808031DA22C693084008313840310
:10191000840A8C1E892C1A0880000D300002031DD9
:10192000882C80018316D3016930D2008A1183127A
:10193000A5258A157A08C9007908C8007808C70063
:101940007708C6008316D3015F30D200D501AA30D4
:10195000D4008A1183121C228A15F808031DCE2C8C
:101960006930840083138403840A8C1EB52C1A0802
:1019700080000D300002031DB42C80018316D301BA
:101980006930D2008A118312A5258A157A08CD0004
:101990007908CC007808CB007708CA008316D301F9
:1019A0005F30D200D501B430D4008A1183121C22DA
:1019B0008A15F808031DF52C69308400831384030D
:1019C000840A8C1EE12C1A0880000D300002031DD1
:1019D000E02C80018316D3016930D20083120028E5
:1019E000FA017808BC007A08BD00F301F4016930FF
:1019F000840083137308840774088A1146208A15AB
:101A0000800000380319072DF40AF30AF72C4B2C39
:101A1000F30173088A114B208A15F30AF70077083F
:101A20000C1E102D990005307302031D092DF301C2
:101A3000F4016930840083137308840774088A11E1
:101A400046208A15800000380319292DF40AF30A6C
:101A5000192DF301F4015F308400831373088407A8
:101A600074088A1146208A158000003803193B2D1E
:101A7000F40AF30A2B2D8316881183128815410866
:101A80008316D500831240088316D40083123F08C2
:101A90008316D30083123E088316D20083124508B2
:101AA0008316D900831244088316D8008312430892
:101AB0008316D700831242088316D6008312490882
:101AC0008316DD00831248088316DC008312470862
:101AD0008316DB00831246088316DA0083124D0852
:101AE0008316E10083124C088316E00083124B0832
:101AF0008316DF0083124A088316DE00831204294E
:101B0000B008031D972DB108031D972DB208031DC2
:101B1000972DB308031D972DB408031D972DB50805
:101B2000031D972DB608031D972DB708031D802DA3
:0C1B300083168811831288114B2C63006F
:02400E0039393E
:00000001FF
;PIC16F877A
